{
  "abi": [
    {
      "type": "constructor",
      "inputs": [
        {
          "name": "_paymentERC20",
          "type": "address",
          "internalType": "address"
        }
      ],
      "stateMutability": "nonpayable"
    },
    {
      "type": "function",
      "name": "MAX_TOKENS_PER_USER",
      "inputs": [],
      "outputs": [
        {
          "name": "",
          "type": "uint256",
          "internalType": "uint256"
        }
      ],
      "stateMutability": "view"
    },
    {
      "type": "function",
      "name": "PRICE",
      "inputs": [],
      "outputs": [
        {
          "name": "",
          "type": "uint256",
          "internalType": "uint256"
        }
      ],
      "stateMutability": "view"
    },
    {
      "type": "function",
      "name": "approve",
      "inputs": [
        {
          "name": "to",
          "type": "address",
          "internalType": "address"
        },
        {
          "name": "tokenId",
          "type": "uint256",
          "internalType": "uint256"
        }
      ],
      "outputs": [],
      "stateMutability": "nonpayable"
    },
    {
      "type": "function",
      "name": "balanceOf",
      "inputs": [
        {
          "name": "owner",
          "type": "address",
          "internalType": "address"
        }
      ],
      "outputs": [
        {
          "name": "",
          "type": "uint256",
          "internalType": "uint256"
        }
      ],
      "stateMutability": "view"
    },
    {
      "type": "function",
      "name": "baseURI",
      "inputs": [],
      "outputs": [
        {
          "name": "",
          "type": "string",
          "internalType": "string"
        }
      ],
      "stateMutability": "view"
    },
    {
      "type": "function",
      "name": "getApproved",
      "inputs": [
        {
          "name": "tokenId",
          "type": "uint256",
          "internalType": "uint256"
        }
      ],
      "outputs": [
        {
          "name": "",
          "type": "address",
          "internalType": "address"
        }
      ],
      "stateMutability": "view"
    },
    {
      "type": "function",
      "name": "isApprovedForAll",
      "inputs": [
        {
          "name": "owner",
          "type": "address",
          "internalType": "address"
        },
        {
          "name": "operator",
          "type": "address",
          "internalType": "address"
        }
      ],
      "outputs": [
        {
          "name": "",
          "type": "bool",
          "internalType": "bool"
        }
      ],
      "stateMutability": "view"
    },
    {
      "type": "function",
      "name": "mintNative",
      "inputs": [
        {
          "name": "amount",
          "type": "uint256",
          "internalType": "uint256"
        }
      ],
      "outputs": [],
      "stateMutability": "payable"
    },
    {
      "type": "function",
      "name": "mintWithERC20",
      "inputs": [
        {
          "name": "amount",
          "type": "uint256",
          "internalType": "uint256"
        }
      ],
      "outputs": [],
      "stateMutability": "nonpayable"
    },
    {
      "type": "function",
      "name": "mintedTokensPerUser",
      "inputs": [
        {
          "name": "",
          "type": "address",
          "internalType": "address"
        }
      ],
      "outputs": [
        {
          "name": "",
          "type": "uint256",
          "internalType": "uint256"
        }
      ],
      "stateMutability": "view"
    },
    {
      "type": "function",
      "name": "name",
      "inputs": [],
      "outputs": [
        {
          "name": "",
          "type": "string",
          "internalType": "string"
        }
      ],
      "stateMutability": "view"
    },
    {
      "type": "function",
      "name": "owner",
      "inputs": [],
      "outputs": [
        {
          "name": "",
          "type": "address",
          "internalType": "address"
        }
      ],
      "stateMutability": "view"
    },
    {
      "type": "function",
      "name": "ownerOf",
      "inputs": [
        {
          "name": "tokenId",
          "type": "uint256",
          "internalType": "uint256"
        }
      ],
      "outputs": [
        {
          "name": "",
          "type": "address",
          "internalType": "address"
        }
      ],
      "stateMutability": "view"
    },
    {
      "type": "function",
      "name": "paymentERC20",
      "inputs": [],
      "outputs": [
        {
          "name": "",
          "type": "address",
          "internalType": "address"
        }
      ],
      "stateMutability": "view"
    },
    {
      "type": "function",
      "name": "renounceOwnership",
      "inputs": [],
      "outputs": [],
      "stateMutability": "nonpayable"
    },
    {
      "type": "function",
      "name": "safeTransferFrom",
      "inputs": [
        {
          "name": "from",
          "type": "address",
          "internalType": "address"
        },
        {
          "name": "to",
          "type": "address",
          "internalType": "address"
        },
        {
          "name": "tokenId",
          "type": "uint256",
          "internalType": "uint256"
        }
      ],
      "outputs": [],
      "stateMutability": "nonpayable"
    },
    {
      "type": "function",
      "name": "safeTransferFrom",
      "inputs": [
        {
          "name": "from",
          "type": "address",
          "internalType": "address"
        },
        {
          "name": "to",
          "type": "address",
          "internalType": "address"
        },
        {
          "name": "tokenId",
          "type": "uint256",
          "internalType": "uint256"
        },
        {
          "name": "data",
          "type": "bytes",
          "internalType": "bytes"
        }
      ],
      "outputs": [],
      "stateMutability": "nonpayable"
    },
    {
      "type": "function",
      "name": "setApprovalForAll",
      "inputs": [
        {
          "name": "operator",
          "type": "address",
          "internalType": "address"
        },
        {
          "name": "approved",
          "type": "bool",
          "internalType": "bool"
        }
      ],
      "outputs": [],
      "stateMutability": "nonpayable"
    },
    {
      "type": "function",
      "name": "setBaseURI",
      "inputs": [
        {
          "name": "newBaseURI",
          "type": "string",
          "internalType": "string"
        }
      ],
      "outputs": [],
      "stateMutability": "nonpayable"
    },
    {
      "type": "function",
      "name": "supportsInterface",
      "inputs": [
        {
          "name": "interfaceId",
          "type": "bytes4",
          "internalType": "bytes4"
        }
      ],
      "outputs": [
        {
          "name": "",
          "type": "bool",
          "internalType": "bool"
        }
      ],
      "stateMutability": "view"
    },
    {
      "type": "function",
      "name": "symbol",
      "inputs": [],
      "outputs": [
        {
          "name": "",
          "type": "string",
          "internalType": "string"
        }
      ],
      "stateMutability": "view"
    },
    {
      "type": "function",
      "name": "tokenId",
      "inputs": [],
      "outputs": [
        {
          "name": "",
          "type": "uint256",
          "internalType": "uint256"
        }
      ],
      "stateMutability": "view"
    },
    {
      "type": "function",
      "name": "tokenIdsPerUser",
      "inputs": [
        {
          "name": "",
          "type": "address",
          "internalType": "address"
        },
        {
          "name": "",
          "type": "uint256",
          "internalType": "uint256"
        }
      ],
      "outputs": [
        {
          "name": "",
          "type": "uint256",
          "internalType": "uint256"
        }
      ],
      "stateMutability": "view"
    },
    {
      "type": "function",
      "name": "tokenURI",
      "inputs": [
        {
          "name": "tokenId",
          "type": "uint256",
          "internalType": "uint256"
        }
      ],
      "outputs": [
        {
          "name": "",
          "type": "string",
          "internalType": "string"
        }
      ],
      "stateMutability": "view"
    },
    {
      "type": "function",
      "name": "tokensOf",
      "inputs": [
        {
          "name": "user",
          "type": "address",
          "internalType": "address"
        }
      ],
      "outputs": [
        {
          "name": "",
          "type": "uint256[]",
          "internalType": "uint256[]"
        }
      ],
      "stateMutability": "view"
    },
    {
      "type": "function",
      "name": "transferFrom",
      "inputs": [
        {
          "name": "from",
          "type": "address",
          "internalType": "address"
        },
        {
          "name": "to",
          "type": "address",
          "internalType": "address"
        },
        {
          "name": "tokenId",
          "type": "uint256",
          "internalType": "uint256"
        }
      ],
      "outputs": [],
      "stateMutability": "nonpayable"
    },
    {
      "type": "function",
      "name": "transferOwnership",
      "inputs": [
        {
          "name": "newOwner",
          "type": "address",
          "internalType": "address"
        }
      ],
      "outputs": [],
      "stateMutability": "nonpayable"
    },
    {
      "type": "function",
      "name": "withdraw",
      "inputs": [],
      "outputs": [],
      "stateMutability": "nonpayable"
    },
    {
      "type": "function",
      "name": "withdrawERC20",
      "inputs": [],
      "outputs": [],
      "stateMutability": "nonpayable"
    },
    {
      "type": "event",
      "name": "Approval",
      "inputs": [
        {
          "name": "owner",
          "type": "address",
          "indexed": true,
          "internalType": "address"
        },
        {
          "name": "approved",
          "type": "address",
          "indexed": true,
          "internalType": "address"
        },
        {
          "name": "tokenId",
          "type": "uint256",
          "indexed": true,
          "internalType": "uint256"
        }
      ],
      "anonymous": false
    },
    {
      "type": "event",
      "name": "ApprovalForAll",
      "inputs": [
        {
          "name": "owner",
          "type": "address",
          "indexed": true,
          "internalType": "address"
        },
        {
          "name": "operator",
          "type": "address",
          "indexed": true,
          "internalType": "address"
        },
        {
          "name": "approved",
          "type": "bool",
          "indexed": false,
          "internalType": "bool"
        }
      ],
      "anonymous": false
    },
    {
      "type": "event",
      "name": "BaseURIUpdated",
      "inputs": [
        {
          "name": "newBaseURI",
          "type": "string",
          "indexed": false,
          "internalType": "string"
        }
      ],
      "anonymous": false
    },
    {
      "type": "event",
      "name": "OwnershipTransferred",
      "inputs": [
        {
          "name": "previousOwner",
          "type": "address",
          "indexed": true,
          "internalType": "address"
        },
        {
          "name": "newOwner",
          "type": "address",
          "indexed": true,
          "internalType": "address"
        }
      ],
      "anonymous": false
    },
    {
      "type": "event",
      "name": "TokensMinted",
      "inputs": [
        {
          "name": "user",
          "type": "address",
          "indexed": true,
          "internalType": "address"
        },
        {
          "name": "amount",
          "type": "uint256",
          "indexed": false,
          "internalType": "uint256"
        },
        {
          "name": "initialTokenId",
          "type": "uint256",
          "indexed": false,
          "internalType": "uint256"
        }
      ],
      "anonymous": false
    },
    {
      "type": "event",
      "name": "Transfer",
      "inputs": [
        {
          "name": "from",
          "type": "address",
          "indexed": true,
          "internalType": "address"
        },
        {
          "name": "to",
          "type": "address",
          "indexed": true,
          "internalType": "address"
        },
        {
          "name": "tokenId",
          "type": "uint256",
          "indexed": true,
          "internalType": "uint256"
        }
      ],
      "anonymous": false
    },
    {
      "type": "error",
      "name": "AddressEmptyCode",
      "inputs": [
        {
          "name": "target",
          "type": "address",
          "internalType": "address"
        }
      ]
    },
    {
      "type": "error",
      "name": "AddressInsufficientBalance",
      "inputs": [
        {
          "name": "account",
          "type": "address",
          "internalType": "address"
        }
      ]
    },
    {
      "type": "error",
      "name": "ERC721IncorrectOwner",
      "inputs": [
        {
          "name": "sender",
          "type": "address",
          "internalType": "address"
        },
        {
          "name": "tokenId",
          "type": "uint256",
          "internalType": "uint256"
        },
        {
          "name": "owner",
          "type": "address",
          "internalType": "address"
        }
      ]
    },
    {
      "type": "error",
      "name": "ERC721InsufficientApproval",
      "inputs": [
        {
          "name": "operator",
          "type": "address",
          "internalType": "address"
        },
        {
          "name": "tokenId",
          "type": "uint256",
          "internalType": "uint256"
        }
      ]
    },
    {
      "type": "error",
      "name": "ERC721InvalidApprover",
      "inputs": [
        {
          "name": "approver",
          "type": "address",
          "internalType": "address"
        }
      ]
    },
    {
      "type": "error",
      "name": "ERC721InvalidOperator",
      "inputs": [
        {
          "name": "operator",
          "type": "address",
          "internalType": "address"
        }
      ]
    },
    {
      "type": "error",
      "name": "ERC721InvalidOwner",
      "inputs": [
        {
          "name": "owner",
          "type": "address",
          "internalType": "address"
        }
      ]
    },
    {
      "type": "error",
      "name": "ERC721InvalidReceiver",
      "inputs": [
        {
          "name": "receiver",
          "type": "address",
          "internalType": "address"
        }
      ]
    },
    {
      "type": "error",
      "name": "ERC721InvalidSender",
      "inputs": [
        {
          "name": "sender",
          "type": "address",
          "internalType": "address"
        }
      ]
    },
    {
      "type": "error",
      "name": "ERC721NonexistentToken",
      "inputs": [
        {
          "name": "tokenId",
          "type": "uint256",
          "internalType": "uint256"
        }
      ]
    },
    {
      "type": "error",
      "name": "FailedInnerCall",
      "inputs": []
    },
    {
      "type": "error",
      "name": "OwnableInvalidOwner",
      "inputs": [
        {
          "name": "owner",
          "type": "address",
          "internalType": "address"
        }
      ]
    },
    {
      "type": "error",
      "name": "OwnableUnauthorizedAccount",
      "inputs": [
        {
          "name": "account",
          "type": "address",
          "internalType": "address"
        }
      ]
    },
    {
      "type": "error",
      "name": "SafeERC20FailedOperation",
      "inputs": [
        {
          "name": "token",
          "type": "address",
          "internalType": "address"
        }
      ]
    },
    {
      "type": "error",
      "name": "SomniaTest__FailedToSendEther",
      "inputs": []
    },
    {
      "type": "error",
      "name": "SomniaTest__InvalidAmountOfSTTSent",
      "inputs": []
    },
    {
      "type": "error",
      "name": "SomniaTest__InvalidTokenAmount",
      "inputs": []
    },
    {
      "type": "error",
      "name": "SomniaTest__MaxTokensPerUserReached",
      "inputs": []
    },
    {
      "type": "error",
      "name": "SomniaTest__NoBalanceToWithdraw",
      "inputs": []
    }
  ],
  "bytecode": {
    "object": "0x60a060405234801561001057600080fd5b5060405161220d38038061220d83398101604081905261002f91610153565b336040518060400160405280600a81526020016914dbdb5b9a5855195cdd60b21b8152506040518060400160405280600281526020016114d560f21b815250816000908161007d9190610222565b50600161008a8282610222565b5050506001600160a01b0381166100bb57604051631e4fbdf760e01b81526000600482015260240160405180910390fd5b6100c481610101565b506000600755604080516060810190915260308082526121dd60208301396008906100ef9082610222565b506001600160a01b03166080526102e0565b600680546001600160a01b038381166001600160a01b0319831681179093556040519116919082907f8be0079c531659141344cd1fd0a4f28419497f9722a3daafe3b4186f6b6457e090600090a35050565b60006020828403121561016557600080fd5b81516001600160a01b038116811461017c57600080fd5b9392505050565b634e487b7160e01b600052604160045260246000fd5b600181811c908216806101ad57607f821691505b6020821081036101cd57634e487b7160e01b600052602260045260246000fd5b50919050565b601f82111561021d57806000526020600020601f840160051c810160208510156101fa5750805b601f840160051c820191505b8181101561021a5760008155600101610206565b50505b505050565b81516001600160401b0381111561023b5761023b610183565b61024f816102498454610199565b846101d3565b6020601f821160018114610283576000831561026b5750848201515b600019600385901b1c1916600184901b17845561021a565b600084815260208120601f198516915b828110156102b35787850151825560209485019460019092019101610293565b50848210156102d15786840151600019600387901b60f8161c191681555b50505050600190811b01905550565b608051611ecd610310600039600081816104a001528181610710015281816108b4015261094c0152611ecd6000f3fe6080604052600436106101c25760003560e01c806369c5dfd8116100f7578063a22cb46511610095578063df67f66f11610064578063df67f66f14610502578063e985e9c514610522578063f2fde38b14610542578063fc4c01b71461056257600080fd5b8063a22cb4651461046e578063aa9970691461048e578063b88d4fde146104c2578063c87b56dd146104e257600080fd5b8063715018a6116100d1578063715018a61461040a5780638d859f3e1461041f5780638da5cb5b1461043b57806395d89b411461045957600080fd5b806369c5dfd8146103c05780636c0360eb146103d557806370a08231146103ea57600080fd5b80632ed6d5e81161016457806355f804b31161013e57806355f804b3146103265780635a3f2672146103465780635cb206b9146103735780636352211e146103a057600080fd5b80632ed6d5e8146102dc5780633ccfd60b146102f157806342842e0e1461030657600080fd5b8063095ea7b3116101a0578063095ea7b31461025657806317d70f7c14610278578063183e1d981461029c57806323b872dd146102bc57600080fd5b806301ffc9a7146101c757806306fdde03146101fc578063081812fc1461021e575b600080fd5b3480156101d357600080fd5b506101e76101e23660046118d3565b610575565b60405190151581526020015b60405180910390f35b34801561020857600080fd5b506102116105c7565b6040516101f39190611940565b34801561022a57600080fd5b5061023e610239366004611953565b610659565b6040516001600160a01b0390911681526020016101f3565b34801561026257600080fd5b50610276610271366004611988565b610682565b005b34801561028457600080fd5b5061028e60075481565b6040519081526020016101f3565b3480156102a857600080fd5b506102766102b7366004611953565b610691565b3480156102c857600080fd5b506102766102d73660046119b2565b610804565b3480156102e857600080fd5b50610276610894565b3480156102fd57600080fd5b50610276610a43565b34801561031257600080fd5b506102766103213660046119b2565b610aef565b34801561033257600080fd5b50610276610341366004611a7f565b610b0f565b34801561035257600080fd5b50610366610361366004611ac8565b610baf565b6040516101f39190611ae3565b34801561037f57600080fd5b5061028e61038e366004611ac8565b60096020526000908152604090205481565b3480156103ac57600080fd5b5061023e6103bb366004611953565b610c1b565b3480156103cc57600080fd5b5061028e603381565b3480156103e157600080fd5b50610211610c26565b3480156103f657600080fd5b5061028e610405366004611ac8565b610cb4565b34801561041657600080fd5b50610276610cfc565b34801561042b57600080fd5b5061028e67018ab4dc828bc00081565b34801561044757600080fd5b506006546001600160a01b031661023e565b34801561046557600080fd5b50610211610d10565b34801561047a57600080fd5b50610276610489366004611b34565b610d1f565b34801561049a57600080fd5b5061023e7f000000000000000000000000000000000000000000000000000000000000000081565b3480156104ce57600080fd5b506102766104dd366004611b6b565b610d2a565b3480156104ee57600080fd5b506102116104fd366004611953565b610d41565b34801561050e57600080fd5b5061028e61051d366004611988565b610da9565b34801561052e57600080fd5b506101e761053d366004611be7565b610dda565b34801561054e57600080fd5b5061027661055d366004611ac8565b610e08565b610276610570366004611953565b610e43565b60006001600160e01b031982166380ac58cd60e01b14806105a657506001600160e01b03198216635b5e139f60e01b145b806105c157506301ffc9a760e01b6001600160e01b03198316145b92915050565b6060600080546105d690611c1a565b80601f016020809104026020016040519081016040528092919081815260200182805461060290611c1a565b801561064f5780601f106106245761010080835404028352916020019161064f565b820191906000526020600020905b81548152906001019060200180831161063257829003601f168201915b5050505050905090565b600061066482610f9b565b506000828152600460205260409020546001600160a01b03166105c1565b61068d828233610fd4565b5050565b600081116106b2576040516309a65c4360e11b815260040160405180910390fd5b336000908152600960205260409020546033906106cf9083611c6a565b106106ed57604051637c5eed0760e01b815260040160405180910390fd5b600061070167018ab4dc828bc00083611c7d565b90506107386001600160a01b037f000000000000000000000000000000000000000000000000000000000000000016333084610fe1565b600754336000908152600960205260408120805485929061075a908490611c6a565b9091555061076a90508382611c6a565b60075560005b838110156107b957610782338361103b565b336000908152600a6020908152604082208054600181018255908352912001829055816107ae81611c94565b925050600101610770565b50337f2e8ac5177a616f2aec08c3048f5021e4e9743ece034e8d83ba5caf76688bb475846107e78185611cad565b6040805192835260208301919091520160405180910390a2505050565b6001600160a01b03821661083357604051633250574960e11b8152600060048201526024015b60405180910390fd5b60006108408383336110a0565b9050836001600160a01b0316816001600160a01b03161461088e576040516364283d7b60e01b81526001600160a01b038086166004830152602482018490528216604482015260640161082a565b50505050565b61089c611199565b6040516370a0823160e01b81523060048201526000907f00000000000000000000000000000000000000000000000000000000000000006001600160a01b0316906370a0823190602401602060405180830381865afa158015610903573d6000803e3d6000fd5b505050506040513d601f19601f820116820180604052508101906109279190611cc0565b90506000811161094a57604051630369d14b60e01b815260040160405180910390fd5b7f00000000000000000000000000000000000000000000000000000000000000006001600160a01b031663a9059cbb61098b6006546001600160a01b031690565b6040516001600160e01b031960e084901b1681526001600160a01b039091166004820152602481018490526044016020604051808303816000875af11580156109d8573d6000803e3d6000fd5b505050506040513d601f19601f820116820180604052508101906109fc9190611cd9565b610a405760405162461bcd60e51b8152602060048201526015602482015274115490cc8c081d1c985b9cd9995c8819985a5b1959605a1b604482015260640161082a565b50565b610a4b611199565b4780610a6a57604051630369d14b60e01b815260040160405180910390fd5b6000610a7e6006546001600160a01b031690565b6001600160a01b03168260405160006040518083038185875af1925050503d8060008114610ac8576040519150601f19603f3d011682016040523d82523d6000602084013e610acd565b606091505b505090508061068d57604051639515a65960e01b815260040160405180910390fd5b610b0a83838360405180602001604052806000815250610d2a565b505050565b610b17611199565b6000815111610b685760405162461bcd60e51b815260206004820152601860248201527f42617365205552492063616e6e6f7420626520656d7074790000000000000000604482015260640161082a565b6008610b748282611d3d565b507f6741b2fc379fad678116fe3d4d4b9a1a184ab53ba36b86ad0fa66340b1ab41ad81604051610ba49190611940565b60405180910390a150565b6001600160a01b0381166000908152600a6020908152604091829020805483518184028101840190945280845260609392830182828015610c0f57602002820191906000526020600020905b815481526020019060010190808311610bfb575b50505050509050919050565b60006105c182610f9b565b60088054610c3390611c1a565b80601f0160208091040260200160405190810160405280929190818152602001828054610c5f90611c1a565b8015610cac5780601f10610c8157610100808354040283529160200191610cac565b820191906000526020600020905b815481529060010190602001808311610c8f57829003601f168201915b505050505081565b60006001600160a01b038216610ce0576040516322718ad960e21b81526000600482015260240161082a565b506001600160a01b031660009081526003602052604090205490565b610d04611199565b610d0e60006111c6565b565b6060600180546105d690611c1a565b61068d338383611218565b610d35848484610804565b61088e848484846112b7565b6060610d4c82610f9b565b506000610d576113e0565b90506000815111610d775760405180602001604052806000815250610da2565b80610d81846113ef565b604051602001610d92929190611dfc565b6040516020818303038152906040525b9392505050565b600a6020528160005260406000208181548110610dc557600080fd5b90600052602060002001600091509150505481565b6001600160a01b03918216600090815260056020908152604080832093909416825291909152205460ff1690565b610e10611199565b6001600160a01b038116610e3a57604051631e4fbdf760e01b81526000600482015260240161082a565b610a40816111c6565b60008111610e64576040516309a65c4360e11b815260040160405180910390fd5b610e7667018ab4dc828bc00082611c7d565b3414610e9557604051631451e73760e31b815260040160405180910390fd5b33600090815260096020526040902054603390610eb29083611c6a565b10610ed057604051637c5eed0760e01b815260040160405180910390fd5b6007543360009081526009602052604081208054849290610ef2908490611c6a565b90915550610f0290508282611c6a565b60075560005b82811015610f5157610f1a338361103b565b336000908152600a602090815260408220805460018101825590835291200182905581610f4681611c94565b925050600101610f08565b50337f2e8ac5177a616f2aec08c3048f5021e4e9743ece034e8d83ba5caf76688bb47583610f7f8185611cad565b6040805192835260208301919091520160405180910390a25050565b6000818152600260205260408120546001600160a01b0316806105c157604051637e27328960e01b81526004810184905260240161082a565b610b0a8383836001611482565b604080516001600160a01b0385811660248301528416604482015260648082018490528251808303909101815260849091019091526020810180516001600160e01b03166323b872dd60e01b17905261088e908590611588565b6001600160a01b03821661106557604051633250574960e11b81526000600482015260240161082a565b6000611073838360006110a0565b90506001600160a01b03811615610b0a576040516339e3563760e11b81526000600482015260240161082a565b6000828152600260205260408120546001600160a01b03908116908316156110cd576110cd8184866115eb565b6001600160a01b0381161561110b576110ea600085600080611482565b6001600160a01b038116600090815260036020526040902080546000190190555b6001600160a01b0385161561113a576001600160a01b0385166000908152600360205260409020805460010190555b60008481526002602052604080822080546001600160a01b0319166001600160a01b0389811691821790925591518793918516917fddf252ad1be2c89b69c2b068fc378daa952ba7f163c4a11628f55a4df523b3ef91a4949350505050565b6006546001600160a01b03163314610d0e5760405163118cdaa760e01b815233600482015260240161082a565b600680546001600160a01b038381166001600160a01b0319831681179093556040519116919082907f8be0079c531659141344cd1fd0a4f28419497f9722a3daafe3b4186f6b6457e090600090a35050565b6001600160a01b03821661124a57604051630b61174360e31b81526001600160a01b038316600482015260240161082a565b6001600160a01b03838116600081815260056020908152604080832094871680845294825291829020805460ff191686151590811790915591519182527f17307eab39ab6107e8899845ad3d59bd9653f200f220920489ca2b5937696c31910160405180910390a3505050565b6001600160a01b0383163b1561088e57604051630a85bd0160e11b81526001600160a01b0384169063150b7a02906112f9903390889087908790600401611e2b565b6020604051808303816000875af1925050508015611334575060408051601f3d908101601f1916820190925261133191810190611e5e565b60015b61139d573d808015611362576040519150601f19603f3d011682016040523d82523d6000602084013e611367565b606091505b50805160000361139557604051633250574960e11b81526001600160a01b038516600482015260240161082a565b805181602001fd5b6001600160e01b03198116630a85bd0160e11b146113d957604051633250574960e11b81526001600160a01b038516600482015260240161082a565b5050505050565b6060600880546105d690611c1a565b606060006113fc8361164f565b600101905060008167ffffffffffffffff81111561141c5761141c6119ef565b6040519080825280601f01601f191660200182016040528015611446576020820181803683370190505b5090508181016020015b600019016f181899199a1a9b1b9c1cb0b131b232b360811b600a86061a8153600a850494508461145057509392505050565b808061149657506001600160a01b03821615155b156115585760006114a684610f9b565b90506001600160a01b038316158015906114d25750826001600160a01b0316816001600160a01b031614155b80156114e557506114e38184610dda565b155b1561150e5760405163a9fbf51f60e01b81526001600160a01b038416600482015260240161082a565b81156115565783856001600160a01b0316826001600160a01b03167f8c5be1e5ebec7d5bd14f71427d1e84f3dd0314c0f7b2291e5b200ac8c7c3b92560405160405180910390a45b505b5050600090815260046020526040902080546001600160a01b0319166001600160a01b0392909216919091179055565b600061159d6001600160a01b03841683611727565b905080516000141580156115c25750808060200190518101906115c09190611cd9565b155b15610b0a57604051635274afe760e01b81526001600160a01b038416600482015260240161082a565b6115f6838383611735565b610b0a576001600160a01b03831661162457604051637e27328960e01b81526004810182905260240161082a565b60405163177e802f60e01b81526001600160a01b03831660048201526024810182905260440161082a565b60008072184f03e93ff9f4daa797ed6e38ed64bf6a1f0160401b831061168e5772184f03e93ff9f4daa797ed6e38ed64bf6a1f0160401b830492506040015b6d04ee2d6d415b85acef810000000083106116ba576d04ee2d6d415b85acef8100000000830492506020015b662386f26fc1000083106116d857662386f26fc10000830492506010015b6305f5e10083106116f0576305f5e100830492506008015b612710831061170457612710830492506004015b60648310611716576064830492506002015b600a83106105c15760010192915050565b6060610da28383600061179b565b60006001600160a01b038316158015906117935750826001600160a01b0316846001600160a01b0316148061176f575061176f8484610dda565b8061179357506000828152600460205260409020546001600160a01b038481169116145b949350505050565b6060814710156117c05760405163cd78605960e01b815230600482015260240161082a565b600080856001600160a01b031684866040516117dc9190611e7b565b60006040518083038185875af1925050503d8060008114611819576040519150601f19603f3d011682016040523d82523d6000602084013e61181e565b606091505b509150915061182e868383611838565b9695505050505050565b60608261184d5761184882611894565b610da2565b815115801561186457506001600160a01b0384163b155b1561188d57604051639996b31560e01b81526001600160a01b038516600482015260240161082a565b5080610da2565b8051156118a45780518082602001fd5b604051630a12f52160e11b815260040160405180910390fd5b6001600160e01b031981168114610a4057600080fd5b6000602082840312156118e557600080fd5b8135610da2816118bd565b60005b8381101561190b5781810151838201526020016118f3565b50506000910152565b6000815180845261192c8160208601602086016118f0565b601f01601f19169290920160200192915050565b602081526000610da26020830184611914565b60006020828403121561196557600080fd5b5035919050565b80356001600160a01b038116811461198357600080fd5b919050565b6000806040838503121561199b57600080fd5b6119a48361196c565b946020939093013593505050565b6000806000606084860312156119c757600080fd5b6119d08461196c565b92506119de6020850161196c565b929592945050506040919091013590565b634e487b7160e01b600052604160045260246000fd5b60008067ffffffffffffffff841115611a2057611a206119ef565b50604051601f19601f85018116603f0116810181811067ffffffffffffffff82111715611a4f57611a4f6119ef565b604052838152905080828401851015611a6757600080fd5b83836020830137600060208583010152509392505050565b600060208284031215611a9157600080fd5b813567ffffffffffffffff811115611aa857600080fd5b8201601f81018413611ab957600080fd5b61179384823560208401611a05565b600060208284031215611ada57600080fd5b610da28261196c565b602080825282518282018190526000918401906040840190835b81811015611b1b578351835260209384019390920191600101611afd565b509095945050505050565b8015158114610a4057600080fd5b60008060408385031215611b4757600080fd5b611b508361196c565b91506020830135611b6081611b26565b809150509250929050565b60008060008060808587031215611b8157600080fd5b611b8a8561196c565b9350611b986020860161196c565b925060408501359150606085013567ffffffffffffffff811115611bbb57600080fd5b8501601f81018713611bcc57600080fd5b611bdb87823560208401611a05565b91505092959194509250565b60008060408385031215611bfa57600080fd5b611c038361196c565b9150611c116020840161196c565b90509250929050565b600181811c90821680611c2e57607f821691505b602082108103611c4e57634e487b7160e01b600052602260045260246000fd5b50919050565b634e487b7160e01b600052601160045260246000fd5b808201808211156105c1576105c1611c54565b80820281158282048414176105c1576105c1611c54565b600060018201611ca657611ca6611c54565b5060010190565b818103818111156105c1576105c1611c54565b600060208284031215611cd257600080fd5b5051919050565b600060208284031215611ceb57600080fd5b8151610da281611b26565b601f821115610b0a57806000526020600020601f840160051c81016020851015611d1d5750805b601f840160051c820191505b818110156113d95760008155600101611d29565b815167ffffffffffffffff811115611d5757611d576119ef565b611d6b81611d658454611c1a565b84611cf6565b6020601f821160018114611d9f5760008315611d875750848201515b600019600385901b1c1916600184901b1784556113d9565b600084815260208120601f198516915b82811015611dcf5787850151825560209485019460019092019101611daf565b5084821015611ded5786840151600019600387901b60f8161c191681555b50505050600190811b01905550565b60008351611e0e8184602088016118f0565b835190830190611e228183602088016118f0565b01949350505050565b6001600160a01b038581168252841660208201526040810183905260806060820181905260009061182e90830184611914565b600060208284031215611e7057600080fd5b8151610da2816118bd565b60008251611e8d8184602087016118f0565b919091019291505056fea2646970667358221220e73edfe259072f1610d36a62f0af2f3a72573246f58b786a28146e9fbcd1595964736f6c634300081c003368747470733a2f2f6170692e64696365626561722e636f6d2f392e782f706978656c2d6172742f7376673f736565643d",
    "linkReferences": {}
  },
  "methodIdentifiers": {
    "MAX_TOKENS_PER_USER()": "69c5dfd8",
    "PRICE()": "8d859f3e",
    "approve(address,uint256)": "095ea7b3",
    "balanceOf(address)": "70a08231",
    "baseURI()": "6c0360eb",
    "getApproved(uint256)": "081812fc",
    "isApprovedForAll(address,address)": "e985e9c5",
    "mintNative(uint256)": "fc4c01b7",
    "mintWithERC20(uint256)": "183e1d98",
    "mintedTokensPerUser(address)": "5cb206b9",
    "name()": "06fdde03",
    "owner()": "8da5cb5b",
    "ownerOf(uint256)": "6352211e",
    "paymentERC20()": "aa997069",
    "renounceOwnership()": "715018a6",
    "safeTransferFrom(address,address,uint256)": "42842e0e",
    "safeTransferFrom(address,address,uint256,bytes)": "b88d4fde",
    "setApprovalForAll(address,bool)": "a22cb465",
    "setBaseURI(string)": "55f804b3",
    "supportsInterface(bytes4)": "01ffc9a7",
    "symbol()": "95d89b41",
    "tokenId()": "17d70f7c",
    "tokenIdsPerUser(address,uint256)": "df67f66f",
    "tokenURI(uint256)": "c87b56dd",
    "tokensOf(address)": "5a3f2672",
    "transferFrom(address,address,uint256)": "23b872dd",
    "transferOwnership(address)": "f2fde38b",
    "withdraw()": "3ccfd60b",
    "withdrawERC20()": "2ed6d5e8"
  },
  "id": 40
}